S00F00005A4542455248452E7372656310
S11300000C942A000C9447000C9447000C9447006D
S11300100C9447000C9447000C9447000C949F02E6
S11300200C9447000C9447000C9447000C94470030
S11300300C9447000C9447000C9447000C94470020
S11300400C9447000C9447000C9447000C94470010
S11300500C94470011241FBECFE5D8E0DEBFCDBF0E
S113006010E0A0E6B0E0E6E9FFE002C005900D92E2
S1130070A038B107D9F726E0A0E8B0E001C01D928E
S1130080A73CB207E1F70E9421010C94C9070C9424
S11300900000CF93DF93EC010E945805809180000B
S11300A090918100892B31F484E890E09093810051
S11300B0809380002097C9F0809182009091830002
S11300C09E01280F391F2B3D45E0340788F4821721
S11300D0930788F4C0918000D0918100C80FD91F84
S11300E0309383002093820008C0C0E0D0E005C0B4
S11300F0C0E0D0E002C0C0E0D0E00E947806CE01AB
S1130100DF91CF9108950895FC0103969283818332
S11301102FEF3FEF348323839683858390878783F0
S113012010820895FC01118610860895CF93DF9301
S1130130EB01488159814F3F2FEF520721F4FC0115
S1130140A781B0850DC0DC01139601C0DF011296B2
S1130150ED91FC9113972081318142175307B0F739
S11301601296ED91FC911397FB83EA83D583C483A4
S1130170BD83AC831396DC93CE93129799878887BB
S1130180FC0120812F5F2083DF91CF910895CF93CD
S1130190DF93FC01A085B185C281D38184819581DF
S11301A09D838C83C481D581828193819B838A833F
S11301B011968D919C911297E817F90731F4848177
S11301C0958112969C938E931197118610868C912B
S11301D081508C93DF91CF91089588B3816088BB5F
S11301E088EC90E00E94510788B38E7F88BB88EC2E
S11301F090E00E945107F1CF88B3826088BB84EFFE
S113020091E00E94510788B38D7F88BB84EF91E011
S11302100E945107F1CF88B3846088BB88EE93E0D5
S11302200E94510788B38B7F88BB88EE93E00E94BD
S11302305107F1CF87B3876087BB88B3887F88BBBA
S113024008950E941A01E12CF12C03E020E030E033
S113025045E561E670E08DEE90E00E94E60402E080
S113026020E030E045E56AE670E08CEF90E00E9423
S1130270E60401E020E030E045E564E770E08BE06F
S113028091E00E94E6040E944105FFCF1BBC8CE76D
S11302908ABD8BE08EBD89B7806189BF089531E145
S11302A0FC013083319722E220833197A3E3A083BA
S11302B0319760833197708331971082319760E86A
S11302C0608331971082319762E06083319763E0F5
S11302D06083319764E06083319765E06083319790
S11302E066E06083319767E06083319768E06083FC
S11302F0319769E06083319760E16083319730839F
S1130300319732E13083319733E13083319734E1EF
S11303103083319735E13083319736E1308331973B
S113032037E13083319738E13083319739E13083D5
S1130330319730E23083319731E230833197208333
S1130340319723E22083319740833197508331974B
S113035026E22083319727E22083319728E2208305
S1130360319729E22083319720E32083319721E3D9
S11303702083869708950E944601A091C506B091F6
S1130380C606CD91CDBFDD91DEBFFF91EF91DF9128
S1130390CF91BF91AF919F918F917F916F915F9119
S11303A04F913F912F911F910F91FF90EF90DF900C
S11303B0CF90BF90AF909F908F907F906F905F9001
S11303C04F903F902F901F900F900FBE0F90089565
S11303D081E008950F920FB6F8940F921F921124A2
S11303E02F923F924F925F926F927F928F929F9241
S11303F0AF92BF92CF92DF92EF92FF920F931F932F
S11304002F933F934F935F936F937F938F939F9318
S1130410AF93BF93CF93DF93EF93FF93A091C50660
S1130420B091C6060DB60D920EB60D920E946707E6
S1130430A091C506B091C606CD91CDBFDD91DEBFBA
S1130440FF91EF91DF91CF91BF91AF919F918F91E8
S11304507F916F915F914F913F912F911F910F91D8
S1130460FF90EF90DF90CF90BF90AF909F908F90D0
S11304707F906F905F904F903F902F901F900F90C0
S11304800FBE0F9008950F920FB6F8940F921F921B
S113049011242F923F924F925F926F927F928F928C
S11304A09F92AF92BF92CF92DF92EF92FF920F93FF
S11304B01F932F933F934F935F936F937F938F93E8
S11304C09F93AF93BF93CF93DF93EF93FF93A09149
S11304D0C506B091C6060DB60D920EB60D920E94D9
S11304E05E0581110E946707A091C506B091C606FA
S11304F0CD91CDBFDD91DEBFFF91EF91DF91CF9123
S1130500BF91AF919F918F917F916F915F914F9127
S11305103F912F911F910F91FF90EF90DF90CF901B
S1130520BF90AF909F908F907F906F905F904F900F
S11305303F902F901F900F900FBE0F9008950E9430
S113054043021895E0918D06F0918E068081811109
S113055007C08FEF9FEF909364068093630608951E
S1130560E0918D06F0918E060580F681E02D808164
S1130570918190936406809363060895CF93DF93EB
S1130580EC018F89988D0E948300CE010E94830024
S1130590DF91CF9108958F929F92AF92BF92CF92A5
S11305A0DF92EF92FF920F93CF93DF935C014901A7
S11305B0F601C789D08D50E041505109C40FD51FB1
S11305C06115710589F415C0822F90E0FB01E80FD5
S11305D0F91F3081D601A80FB91F59963C93808129
S11305E0882329F02F5F01C020E0283068F3F6014A
S11305F010A2043008F003E0F601068BC60102964F
S11306000E949200C6010C960E949200F601D186C7
S1130610C08684E090E0801B910995878487D38A03
S1130620C28AA401B501CE010E944F01F601918353
S11306308083E114F10419F0F701D182C082DF91C3
S1130640CF910F91FF90EF90DF90CF90BF90AF903C
S11306509F908F9008954F925F926F927F928F92A6
S11306609F92AF92BF92CF92DF92EF92FF920F933D
S11306701F93CF93DF932C014B01142F3901842F47
S113068090E00E9449006C01892B99F086E290E089
S11306900E944900EC01892B41F086E2FE0111928F
S11306A08A95E9F7D88ECF8A06C0C6010E948300D6
S11306B002C0C0E0D0E0209749F0A12CB12C6E011B
S11306C09301412FB401C2010E94CB02CE01DF91FC
S11306D0CF911F910F91FF90EF90DF90CF90BF903B
S11306E0AF909F908F907F906F905F904F90089500
S11306F0CF93C0E010C08C2F90E09C01220F331FD9
S1130700220F331F220F331F820F931F8F55994FD0
S11307100E948400CF5FC43070F388E996E00E94A1
S113072084008FE896E00E94840082E896E00E94AC
S1130730840089E796E00E9484008FE696E00E9498
S1130740840088E996E090938E0680938D068FE866
S113075096E090938C0680938B06CF910895CF9367
S1130760DF93EC010FB6F8940F9280916E068F5FC1
S113077080936E068091C5069091C606892B59F424
S1130780D093C606C093C50680916E06813099F455
S11307900E94780310C080916A0681110CC0E09118
S11307A0C506F091C60696898E89891720F0D093E4
S11307B0C606C093C506809165068F5F8093650663
S11307C08E8990916B06981710F480936B0690E0D5
S11307D0FC01EE0FFF1FEE0FFF1FEE0FFF1F8E0F2A
S11307E09F1FFC01EF55F94F0180F281E02DFD833D
S11307F0EC83848195819F838E83A481B581CE010E
S1130800029613969C938E93129795838483EE8914
S1130810F0E0CF01880F991F880F991F880F991F47
S1130820E80FF91FEF55F94FFB87EA8780818F5F47
S113083080830F900FBE80916A06882351F0E09167
S1130840C506F091C60696898E89981710F40E9401
S1130850EA01DF91CF910895CF93DF931CC00FB6C7
S1130860F8940F92E0917E06F0917F06C681D781BD
S1130870CE0102960E94C70080916E06815080933B
S11308806E06809178068150809378060F900FBE93
S1130890CE010E94BE02809178068111E0CFDF91E3
S11308A0CF9108950E942C048091A1068230D0F348
S11308B00E94EA01F7CFBF92CF92DF92EF92FF92AC
S11308C00F931F93CF93DF93EC01B62E00916C0628
S11308D010916D06E0908D06F0908E06C0908B0608
S11308E0D0908C068091C5069091C60602960E940F
S11308F0C700CF3F8FEFD807B1F5BB20A1F1EFE6DA
S1130900F6E0A181B281C091C506D091C606BD832F
S1130910AC83C091C506D091C60614968D919C9166
S113092015979F838E831496CD91DC9115978091B2
S1130930C5069091C60602969B838A838091C5065C
S11309409091C606029615969C938E931497A09147
S1130950C506B091C6061B96FC93EE931A97808148
S11309608F5F808329C0C00FD11FE091C506F0912D
S1130970C606D383C283C017D10750F46091C5065D
S11309807091C6066E5F7F4FC6010E94960014C028
S11309906091C5067091C6066E5F7F4FC7010E94C5
S11309A096008091630690916406C817D90720F4D5
S11309B0D0936406C0936306DF91CF911F910F918A
S11309C0FF90EF90DF90CF90BF900895EF92FF9249
S11309D00F930E942B03009721F00E94AF0381E044
S11309E001C08FEF0F91FF90EF900895EF92FF9267
S11309F00F931F93CF93DF93CDB7DEB728970FB62E
S1130A00F894DEBF0FBECDBF20E012C0822F022EAD
S1130A10000C990BFC01E558FF4F3081E1E0F0E058
S1130A20EC0FFD1FE80FF91F3083332319F02F5FFC
S1130A30283064F310E081E015C0812F880F990BF2
S1130A409C012F59394F790100E020E030E045E561
S1130A50BE016F5F7F4F82E594E00E94E604882325
S1130A6019F01F5F11164CF728960FB6F894DEBFE5
S1130A700FBECDBFDF91CF911F910F91FF90EF90EB
S1130A8008950E94F604813081F4F8948FEF9FEF6B
S1130A90909364068093630681E080936A061092C3
S1130AA06D0610926C060E94BB018091600008954F
S1130AB0809160068F5F8093600608950F931F9363
S1130AC0CF93DF9380916006811101C1C0916C06C0
S1130AD0D0916D068E010F5F1F4F10936D0600932A
S1130AE06C0601151105B9F480918D0690918E065E
S1130AF020918B0630918C0630938E0620938D06C0
S1130B0090938C0680938B06809166068F5F80930A
S1130B1066060E94A20280916306909164060817FB
S1130B20190720F480E0B8C081E001C080E0E091C2
S1130B308D06F0918E069081911107C02FEF3FEF43
S1130B403093640620936306A7C0E0918D06F0916C
S1130B508E060580F681E02D0680F781E02D228146
S1130B6033810217130728F4309364062093630635
S1130B7093C0A285B3852481358146815781E901DB
S1130B805D834C832681378144815581E9015B83F0
S1130B904A8311962D913C911297AF014E5F5F4F9E
S1130BA02417350731F42681378112963C932E930E
S1130BB01197138612869C9191509C93A489B589B0
S1130BC0109719F12685378560897189E9017D833C
S1130BD06C832089318966857785E9017B836A8303
S1130BE011966D917C9112979F01245F3F4F62177C
S1130BF0730731F42089318912963C932E9311970F
S1130C00158A148A9C9191509C93268990916B0625
S1130C10921710F420936B0630E0D901AA0FBB1F82
S1130C20AA0FBB1FAA0FBB1F2A0F3B1FD901AF5529
S1130C30B94F11960D90BC91A02DB583A483149641
S1130C402D913C9115973783268314962D913C91D1
S1130C501597E9015B834A8315965C934E93149729
S1130C60A689B0E09D01220F331F220F331F220FEC
S1130C70331FA20FB31FAF55B94FB387A2879C91FF
S1130C809F5F9C932689E091C506F091C6069689DC
S1130C90921708F449CF4BCFE091C506F091C606F0
S1130CA0268930E0F901EE0FFF1FEE0FFF1FEE0F54
S1130CB0FF1F2E0F3F1FF901EF55F94F908192301E
S1130CC008F081E09091670691110CC00CC08091EE
S1130CD06806909169060196909369068093680668
S1130CE080E001C081E0DF91CF911F910F910895C1
S1130CF0CF93DF930FB6F8940F92809160068150E2
S1130D0080936006809160068111C3C080916E0655
S1130D10811196C0C1C0E0918706F09188060680D3
S1130D20F781E02DA489B589C685D7858089918905
S1130D309D838C83C089D189868597859B838A838B
S1130D4011962D913C911297CF010C9628173907D3
S1130D5031F48089918912969C938E931197158A08
S1130D60148A8C9181508C93A285B385C481D581DA
S1130D70868197819D838C83C681D7818481958167
S1130D809B838A8311968D919C9112979F012E5F6C
S1130D903F4F8217930731F48681978112969C9373
S1130DA08E931197138612868C9181508C93868929
S1130DB090916B06981710F480936B0690E0DC0119
S1130DC0AA0FBB1FAA0FBB1FAA0FBB1F8A0F9B1F13
S1130DD0DC01AF55B94F11960D90BC91A02DB58390
S1130DE0A48314968D919C9115979783868314966A
S1130DF0CD91DC9115973B832A8315963C932E93D2
S1130E001497A689B0E0CD01880F991F880F991F08
S1130E10880F991FA80FB91FAF55B94FB387A28781
S1130E208C918F5F8C939689A091C506B091C6066C
S1130E3056968C91891730F481E08093670602C03E
S1130E40E0E0F0E080918206811165CFEF2B11F094
S1130E500E94A202C0916806D0916906209769F0A9
S1130E600E945E05882319F081E08093670621972C
S1130E70B9F7109269061092680680916706882374
S1130E8051F08091C5069091C6060E94EA0181E066
S1130E9003C080E001C080E00F900FBEDF91CF91CE
S1130EA00895CF93DF93EC01892B49F00E945805F4
S1130EB060E0CE010E945B040E94780601C080E0DD
S1130EC0811102C00E94EA01DF91CF9108958091BF
S1130ED06006882321F081E08093670608951092CC
S1130EE0670620916B0601C02150822F90E0FC011F
S1130EF0EE0FFF1FEE0FFF1FEE0FFF1FE80FF91F8E
S1130F00EF55F94F3081332379F3AC01440F551F6A
S1130F10440F551F440F551F480F591FFA01EF5531
S1130F20F94FA181B28112966D917C9113977283CE
S1130F3061834C55594F6417750779F4FC01EE0F22
S1130F40FF1FEE0FFF1FEE0FFF1FE80FF91FEF55F6
S1130F50F94F4581568152834183FC01EE0FFF1FF7
S1130F60EE0FFF1FEE0FFF1F8E0F9F1FFC01EF55AB
S1130F70F94F0180F281E02D868197819093C60616
S1130F808093C50620936B068091C5069091C60692
S1090F900895F894FFCF60
S1130F9603477265656E4C45440059656C6C6F7702
S1130FA64C4544005265644C45440049444C450054
S9030000FC
